:100000000C9458030C9475030C9475030C944D2DAB
:100010000C9475030C9475030C9475030C94750380
:100020000C9475030C9475030C9468240C9424248C
:100030000C9465250C9475030C9475030C9475034E
:100040000C9475030C9475030C9475030C94750350
:100050000C9475030C9441250C9475030C94750352
:100060000C9475030C9475030C9475030C94750330
:100070000C9475030C9475030C9475030C94750320
:100080000C9475030C9475030C9475030C94750310
:100090000C9475030C9475030C9475030C94750300
:1000A0000C9475030C9475030C94750305010906F3
:1000B000A1018506050719E029E715002501950826
:1000C000750181020507190029EF1500250195F03A
:1000D000750181020508190129059505750191022F
:1000E000950175039101C00660FF0961A1010962D4
:1000F000150026FF0095207508810209631500266A
:10010000FF00952075089102C005010906A10105AF
:100110000719E029E7150025019508750181029569
:1001200001750881010507190029FF150026FF0048
:100130009506750881000508190129051500250196
:10014000950575019102950175039101C0FD377AFE
:10015000585A000004E6D6B44602002101160000F9
:1001600000742FE5A3E0042F01425D003D8889C69D
:100170005436C3174FE4DCCBB3DF6320E7D717391E
:10018000D83D5F52C90BECB7E6D5195224B073675E
:1001900059B3E0B456C74788C96520CF4A3C940C90
:1001A000015E29865C8E1FD2901470DD8177B209C2
:1001B0006EB5F6AEE987F3FD6E8628D433CFB875F9
:1001C000786A02A926DEE8E6250BF2F12FEB95EF1F
:1001D000757127C27F9195E2635AB0D245B872C05B
:1001E000B554D7004EDE62BA2013945BD1FF59217B
:1001F000584935658A11E5CA1A8401C66412A7BC3C
:10020000C461E80A8B8F1814972CD485C2CA1113C5
:100210009D8194454D5141C1135A07F3F59C8A2E97
:10022000B089D73F3EF2C32110C396AA6256BA7076
:10023000B31061455FB111971836BB16666F7B47E7
:100240008FC44223D0767E3FA7ECEA0CBF2774C34D
:1002500009BD093C35A8EED8AEC7E9FF0F2F64DF12
:1002600072C5CDF6701A8177ECEF634989711EFA79
:10027000EC985A059B0A0F6BC0B382F93085B0A881
:10028000A630E1DE91E0E101A42FEECFFAB4CC0973
:10029000FA55E9DC3EB4782343F5F745FEAA6A7FB8
:1002A000620EBDEBFB2CF315BF380D4959E0000081
:1002B000005614AADD3187545C0001DE02B008004C
:1002C00000C0E5C082B1C467FB0200000000045911
:1002D0005A000101010101010101010202020202B1
:1002E00002020202030303030303030304040404DE
:1002F00004040405050505050606060606070707A6
:10030000070708080808090909090A0A0A0B0B0B5C
:100310000C0C0C0D0D0D0E0E0E0F0F0F10101111F9
:10032000111212131314141515161617171818197D
:10033000191A1A1B1B1C1D1D1E1E1F2020212222E4
:10034000232424252626272829292A2B2C2D2D2E27
:100350002F30313232333435363738393A3B3C3D41
:100360003E3F404142434445464748494A4C4D4E32
:100370004F50515354555658595A5B5D5E5F6162F8
:1003800064656668696B6C6D6F7072737577787A87
:100390007B7D7E8082838587888A8C8E8F919395E2
:1003A00096989A9C9EA0A2A3A5A7A9ABADAFB1B306
:1003B000B5B7BABCBEC0C2C4C6C9CBCDCFD1D4D6E6
:1003C000D8DBDDDFE2E4E7E9EBEEF0F3F5F8FAFD88
:1003D000FF2B0014001A00080015001700E00004AD
:1003E000001600070009000A00E1001D001B0006BE
:1003F0000019000500000000000000E300777C2CDD
:10040000002A00130012000C0018001C00340033F6
:10041000000F000E000D000B0029003800370036D9
:100420000010001100000000000000E600787C28A9
:10043000002B001E001F00200021002200E0000011
:10044000000000000000000000E1000000000000CB
:100450000000000000000000000000E30001002C8C
:10046000002A0027002600250024002300000000A9
:10047000004F00520051005000000000000000003A
:100480000000000000000000000000E6000100285D
:10049000002B001E021F02200221022202E00000A7
:1004A000000000000000000000E10000000000006B
:1004B0000000000000000000000000E30001002C2C
:1004C000002A0027022602250224022302350031D9
:1004D0000030002F002E002D003502310230022F97
:1004E000022E022D02000000000000E6000100289C
:1004F00000007C00000000000000000000207823C5
:10050000782578277800000000217824782678283C
:100510007800000000000000000000E30001002C53
:1005200000000000000000000000000000000000CB
:1005300000000000000000000000000000000000BB
:100540000000000000000000000000E6000100289C
:100550000009025B00030100A0FA09040000010386
:100560000101000921110100012244000705810356
:100570000800010904010002030000000921110123
:100580000001222200070582032000010705030362
:1005900020000109040200010300000009211101EB
:1005A0000001223B00070584032000011201000224
:1005B00000000008534601000100010203011C0372
:1005C0007600690061006C003A0066003600340075
:1005D0006300320062003300630000000C0343003C
:1005E0006F0072006E0065000000100366006F006F
:1005F0006F007300740061006E00000004030904C2
:1006000000000000000000000000000000000000EA
:1006100000000000000000000000000000000000DA
:10062000000000007E0F00D4FFFFFFC7000000782D
:1006300000000000000000002A2B2800000000003D
:100640000000000000000000000000290000000081
:100650002C1E3420212224342627252E362D3738EF
:10066000271E1F202122232425263333362E3738F8
:100670001F0405060708090A0B0C0D0E0F101112B6
:10068000131415161718191A1B1C1D2F3130232D82
:10069000350405060708090A0B0C0D0E0F10111280
:1006A000131415161718191A1B1C1D2F3130354C31
:1006B00011241FBECFEFDAE0DEBFCDBF11E0A0E016
:1006C000B1E0E2EEFFE502C005900D92A036B10761
:1006D000D9F724E0A0E6B1E001C01D92AD37B20722
:1006E000E1F70E948C250C948D2F0C940000482F6C
:1006F00020917C049091430457E0291302C080E0CC
:10070000089530E0529FF001539FF00D1124EC5BEF
:10071000FB4F8181681306C08081481303C0858127
:100720008111EECF2F5F3F4F2770E7CFFC01AC0167
:100730004C5F5F4F8FEF91E32191822728E030E0FB
:1007400087FF09C0880F892721503109C9F7E417AD
:10075000F50791F70895880FF7CFE8EDF0E0808175
:100760008E7F80831092E2001092DA001092E100F6
:10077000A0EEB0E08C9181608C9380818F77808334
:1007800019BCA7EDB0E08C918E7F8C9380818F7E19
:10079000808310922C0408952091E4003091E500AC
:1007A00095E6A9012091EC00822F817020FF06C000
:1007B0008091E80080FF06C080E008952091E80065
:1007C00022FD1AC080913904882389F0853089F090
:1007D0008091EB0085FD0FC02091E4003091E50091
:1007E00042175307F9F29150E1F684E0089582E050
:1007F000089583E0089581E0089580913B0487FF88
:1008000013C08091E80082FF06C08091E8008B77DA
:100810008093E80004C0809139048111F2CF0895DB
:10082000809139048823D9F38091E80080FFF8CFC4
:100830008091E8008E77ECCF982F9093E900242FD9
:10084000762F50E0891731F07091EC002091ED0087
:100850005091F00021FD07C09F5F973071F78093A2
:10086000E90081E008953091EB003E7F3093EB008A
:100870003091ED003D7F3093ED003091EB00316021
:100880003093EB007093EC002093ED005093F00058
:100890002091EE0027FDE0CF80E00895B0E0A0E0D9
:1008A000E4E5F4E00C94732EC8EDD0E088818F7EEF
:1008B0008883E7EDF0E080818160808384E082BFFF
:1008C00081E080932C0488818E7F888302EE10E083
:1008D000F80110821092DA0081EEC82ED12CF601B8
:1008E000108288818F778883888180688883888157
:1008F0008F7D888319BC1092390410923A041092AB
:1009000038041092370490EEE92EF12CF701808123
:100910008B7F808388818160888342E060E080E013
:100920000E941C04F60180818E7F8083F801808103
:1009300081608083808188608083F70180818E7FE1
:100940008083888180618883CDB7DEB7E8E00C942E
:100950008F2EFC01809141049091420486179707E5
:10096000A0F06115710529F49091E8009E779093AD
:10097000E80090E06115710551F4911108C0809173
:10098000E80082FF34C080E00895BC01F2CF80917E
:1009900039048823C1F18530C1F18091E80083FDDD
:1009A00030C08091E80082FDEACF8091E80080FFAE
:1009B000E1CF8091F3002091F200382F611571058D
:1009C00019F02830310558F091E02830310509F050
:1009D00090E02091E8002E772093E800CBCF819122
:1009E0008093F100615071092F5F3F4FE7CF8091F5
:1009F0003904882341F0853041F08091E80083FF7D
:100A0000BECF81E0089582E0089583E008950895BF
:100A1000089580912E04089587E797E79093010841
:100A20008093000888E19AE00FB6F894A895809327
:100A300060000FBE90936000FFCF9C014FB7F89409
:100A40008091280490912904A0912A04B0912B044C
:100A50004FBF821B930B08952FB7F8946091280421
:100A60007091290480912A0490912B042FBF08953E
:100A70002FB7F8948091280490912904A0912A041A
:100A8000B0912B042FBF0895909139019923D1F093
:100A90009091250497FF16C0E82FE695E695E69518
:100AA000EE31E0F4F0E0E659FE4F282F277081E0A8
:100AB00090E001C0880F2A95EAF7809592818923FA
:100AC00082830895E4E6F1E09191891303C0DF0188
:100AD00011971C9291E0EA36F907B1F708959091C9
:100AE00039019923C1F09091250497FF14C0E82F94
:100AF000E695E695E695EE31F8F4F0E0E659FE4F1E
:100B0000877021E030E001C0220F8A95EAF78281E8
:100B1000822B82830895A4E6B1E0EFEF90E02D915F
:100B2000821751F0EF3F19F4211101C0E92F9F5FA7
:100B30009630A9F7EF3F09F408950E2E000CFF0B35
:100B4000EE59FE4FE6CF80912104882359F0E091C1
:100B50002304F0912404309729F00190F081E02DD6
:100B60000995089580E008954115510511F0FA01A5
:100B700009950895CF93DF93EC0140910F045091B4
:100B8000100460911104709112042FB7F8948091B1
:100B9000280490912904A0912A04B0912B042FBF1E
:100BA000841B950BA60BB70B843F9140A105B105A3
:100BB00018F580910F0490911004A0911104B09148
:100BC000120480930B0490930C04A0930D04B09333
:100BD0000E0484EF91E0A0E0B0E0809307049093CE
:100BE0000804A0930904B0930A04D0931704C09397
:100BF0001604DF91CF9108950E942C0560930B0499
:100C000070930C0480930D0490930E0482E390E0A3
:100C1000A0E0B0E0E2CFFC018481862351F4928110
:100C20009923B9F06923808583FF05C081E06111B4
:100C30000FC080E00895892F8F7092959F70982B38
:100C4000862F8F7062956F70682B81E09613F1CFBD
:100C5000089581E0FDCFEAEFF2E090E080E065E604
:100C600073E24CE853E227EE32E2778366835187E2
:100C700040873387228797878687019670968830CA
:100C8000910599F7089581152CE7920741F4209179
:100C9000050430910604232B11F490E080E00895C0
:100CA000FA01811101C0FB01099508956091350198
:100CB0008091DE0280FF0CC070E08091340123E05F
:100CC000829FC0011124845C9D4F0E94990A08955F
:100CD000809136019091370123E0829FF001112429
:100CE000E45CFD4F891740F71182108212828F5FFA
:100CF0003396F8CF8091DE02982F9C7F71F480911B
:100D0000DE02837084608093DE028091E102893785
:100D100018F088E78093E1020895883080F7F5CFD6
:100D200080E00895F894E82FE295EF70F0E031A1AB
:100D3000282F2F7081E090E001C0880F2A95EAF7F4
:100D4000982F9095932391A392A1892B82A37894B5
:100D500008950F931F9380912104882329F00E9406
:100D60002C051F910F9108950E942C0500910E02F1
:100D700010910F022091100230911102600F711F2B
:100D8000821F931FEECF9091250492FF10C041E087
:100D9000282F2471243009F040E031E0282F2871F9
:100DA000283009F030E0431711F02CE0822793FF40
:100DB00010C041E0282F2471243109F040E031E0D7
:100DC000282F2871283109F030E0431711F02CE06A
:100DD00082273091260430FF10C051E0282F217166
:100DE000213009F050E041E0282F2871283009F027
:100DF00040E0541711F029E0822731FF10C041E094
:100E0000282F2171213109F040E031E0282F28718D
:100E1000283109F030E0431711F029E0822794FDD2
:100E2000877E089582389105B9F1B0F48133910538
:100E300009F47DC048F48932910509F46DC08A3205
:100E4000910509F47BC008958533910509F45FC0CD
:100E50008933910509F10895833E9105D9F138F45C
:100E6000803E910529F1823E910579F10895863EF3
:100E70009105D9F1873E910509F43EC0843E910564
:100E800041F52091260421FF24C08091250484FD92
:100E900019C087EE90E0089520912504237009F091
:100EA0005AC02091260423FF14C089E290E00895DF
:100EB0002091250420FD38C03091260430FF09C060
:100EC00024FF43C090E080E008952091250422FD96
:100ED000F7CF08952091250422FD3AC030912604D1
:100EE00030FD39C024FFF5CFEDCF2091250423FF3D
:100EF000F0CF24FDE7CFCDCF2091250423FD2EC0D8
:100F00003091260431FFEECF84EE90E008952091D9
:100F1000250425FFDECFC9CF2091250425FD21C062
:100F20002091260423FFD5CF89E390E0D2CF2091F2
:100F3000250426FFCECF8AE290E008952091250473
:100F400026FFC7CF81E390E0089583EE90E00895F7
:100F500082EE90E0089580EE90E0089586EE90E0B5
:100F6000089585E390E008951F93CF93DF930E9447
:100F70001207EC01C11582E5D80708F03FC0C11582
:100F800090E5D90708F0C2C0C83ED105C0F4C03E04
:100F9000D10580F4C53AD10548F4C430D10550F4E8
:100FA000C130D10539F0D0E0C0E004C0CD3CD1055E
:100FB000D0F3D065CE01DF91CF911F910895C11577
:100FC00080E4D80708F053C0C11590E2D90708F0B3
:100FD000B7C0C11581E0D80730F38D2F0E94C3063A
:100FE000182FCE0199270E941207C12FD0E0DC2FC5
:100FF000CC27CC27DF71C82BD92BDCCFC03892E5AA
:10100000D907A8F4C03682E5D80708F063C0C03419
:1010100092E5D90708F049C0C03282E5D80788F1C7
:10102000CF71D0E0DC2FCC27C16FD06AC3CFC03CDA
:1010300092E5D90780F48C2F8F71C03AD24508F41D
:101040005EC00E94C306C82FD0E0DC2FCC27CC277F
:10105000DF71D062AFCFC03E82E5D80708F0A3CFE2
:10106000DC2FCC27CC27DF71C06FD06AA3CFCE0195
:1010700099270E941207CC27DF70C82BD92BD06A82
:1010800099CF2C2F2695269590E2299F9001112427
:101090008C2F8370C1E0D0E002C0CC0FDD1F8A9599
:1010A000E2F7C22BD32BDD6885CF2C2F2695269512
:1010B000277080E2289F900111248C2F8370C1E05B
:1010C000D0E002C0CC0FDD1F8A95E2F7C22BD32BF4
:1010D000DC6870CF2C2F26952695277090E2299FEB
:1010E000900111248C2F8370C1E0D0E002C0CC0F9E
:1010F000DD1F8A95E2F7C22BD32BDA685BCFC82FAE
:10110000D0E0DC2FCC27C46FD06A54CF8C2F8F71E6
:101110000E94C30655E0D695C7955A95E1F7CF7062
:10112000D0E0DC2FCC27282F30E084FF05C044E03E
:10113000220F331F4A95E1F7C22BD32BD0693ACF48
:101140008D2F8F710E94C306182FCE0199270E9400
:101150001207C12FD0E0DC2FCC27CC27DF71C82BA2
:10116000D92B77CF8091D401882331F01092D4010C
:101170001092D3011092D20108959091D401292F99
:10118000282361F0809589238093D401882339F046
:101190000E9438059093D3018093D201089590E086
:1011A00080E0F8CF809590911D04982390931D04C2
:1011B0000895809590911E04982390931E0408959D
:1011C000CF9380911E04C0911D04C82B8091D4013F
:1011D000882309F10E9438052091D2013091D30172
:1011E000821B930B8838934110F00E94B2088091C3
:1011F000D401C82B809139018823B1F08091250456
:1012000087FF12C08EE12CE631E090E0815080F43F
:1012100091110E94B2088091130480958C239091C3
:101220001404892BCF91089586E024E631E0EDCFB8
:10123000F90141919F01442349F39F5FE7CF109249
:10124000A9011092A8011092A70108959091A601FA
:10125000292F282321F0809589238093A6010895C2
:1012600080917C0490914304981301C008958F5F8E
:101270008770FACF292F983078F5863068F590E09E
:1012800036E0239F800D911D1124682F677023E0A5
:10129000969587952A95E1F7FC01EE0FFF1FE80F61
:1012A000F91FE357FE4F50E040E080E0219130E02D
:1012B000062E02C0369527950A94E2F7217033274F
:1012C000042E01C0220F0A94EAF7822B4F5F5F4F72
:1012D0004330510559F7089580E00895292F98303B
:1012E00098F5863088F590E036E0239F800D911DBB
:1012F0001124282F277041E001C0440F2A95EAF7F6
:1013000023E0969587952A95E1F7FC01EE0FFF1FE4
:10131000E80FF91FE357FE4F30E020E070E05191F5
:10132000DF011197CB01022E02C0969587950A9492
:10133000E2F7817081958527842385278C932F5F21
:101340003F4F2330310559F7089580931D020895CA
:1013500090911D0221E030E0F90101C0EE0F8A9565
:10136000EAF7D90102C0AA0FBB1F6A95E2F7EA2B80
:1013700001C0220F4A95EAF7892F8E23E81305C092
:10138000292B822F0E94A509089520952923F9CFA2
:1013900021E030E001C0220F8A95EAF72095809184
:1013A0001D0282230E94A50908959091A9018095AC
:1013B00089238093A901282F277069F4891759F090
:1013C0009091260492FF07C08695869586950E9487
:1013D000C8090E941F09089521E030E001C0220FD2
:1013E0008A95EAF780911D02822B0E94A509089533
:1013F0009091260492FF10C098E0899F90011124DB
:10140000622B6093A9010E94EC090E943805909319
:10141000A8018093A70108950E94EC090895809384
:101420001C0208959C013A9521153F4150F5FC019D
:10143000EE27F170BC0166277270AC01442754702E
:101440009C012227387094FF0EC080E1EF2B09F435
:1014500080E0672B09F08062452B09F08064232B24
:1014600089F08068089581E0EF2B09F480E0672B14
:1014700009F08260452B09F08460232B19F0886005
:10148000089580E008950F931F93CF93DF938B010E
:10149000EA0190913904943061F58093E9008FEF6F
:1014A0009091E800815095FD06C095ED9A95F1F771
:1014B00000008111F5CF8091E80085FF1AC00E94DD
:1014C000CC03811111C08091E80085FD06C0809198
:1014D000E8008E778093E800F2CFF80181918F01C8
:1014E0008093F100219779F78091E8008E778093BF
:1014F000E800DF91CF911F910F91089540E250E0F5
:10150000BC0184E00E94430A0895CF93DF93EC016D
:1015100048E050E0BC0181E00E94430A88E0FE01FF
:10152000AFE2B4E001900D928A95E1F7DF91CF919F
:101530000895539A4BB1477F5BB15860EFB7F89469
:101540009B01220F331F260F371F280F391F281723
:10155000390741F4EFBF8FE594E00197F1F700C040
:1015600000000895DC016D91CD0178E05BB90000C9
:1015700000C067FF4BB9660F000000C000C000C08C
:101580004BB900C07A9591F7E2CFB0E0A0E0EBEC68
:10159000FAE00C94712E7C015B016A0180910D02CE
:1015A00001E010E08A3010F40AE010E0C1E0D0E081
:1015B000B501C701F6010995811104C021960C17E8
:1015C0001D072CF4CDB7DEB7EAE00C948D2ECC9F2E
:1015D0009001CD9F300D300D112490E080E045E367
:1015E0004A95F1F70000019682179307C1F7E0CF03
:1015F000CF93C82F6FEF811161E685E290E00E94E2
:10160000512F6FEFC11166E786E290E00E94512FE3
:101610006FEFC1116DE987E290E00E94512FCF91E9
:101620000895CF93DF93C9E4D2E060E0CE010E9439
:10163000512F2196C11584E0D807B9F7DF91CF91DA
:1016400008951F93CF93DF93122F8430E0F4683016
:10165000D0F44630C0F4C42FD0E0CC0FDD1F9CE0A6
:10166000699FC00DD11D112490E6899FC00DD11D29
:101670001124632FCE0189960E94512F612FCE0134
:101680008A960E94512FDF91CF911F91089585E294
:1016900090E00E942D2F813689F486E290E00E942E
:1016A0002D2F863759F487E290E00E942D2F91E08C
:1016B0008D3909F090E0892F8170089580E0FCCF8A
:1016C0000F931F93CF93DF93843030F5683020F56C
:1016D000463010F5C42FD0E0CC0FDD1F2CE0629F08
:1016E000C00DD11D112430E6839FC00DD11D1124E2
:1016F000CE0189960E942D2F082F10E0102F002771
:10170000CE018A960E942D2F9801282BC901DF91C6
:10171000CF911F910F91089590E080E0F8CF462F70
:101720002091370230913802232B99F4703F39F41D
:10173000603F79F48091E6029091E7020895783055
:1017400040F4663030F4843020F4672F0E94600B40
:10175000089590E080E00895CF92DF92FF920F937A
:101760001F93CF93DF936C0100911D0280911C02A7
:10177000082BC3E0D0E010E0FC2EC8010C2E02C004
:10178000959587950A94E2F780FD0CC02197A0F704
:10179000F12C8F2DDF91CF911F910F91FF90DF9052
:1017A000CF900895B6018C2F0E948F0B0E94B40732
:1017B000019761F3EECFCF93DF93EC010E94AC0B66
:1017C000BE010E948F0B0E94B407DF91CF91089554
:1017D000FC0124812223C1F0808191810E94DB0BD6
:1017E00092959F70963091F058F4925F9F7092306E
:1017F00058F4803F19F030F4883E30F481E00895C9
:101800009A5FF4CF843FD1F380E00895883EB0F32F
:10181000813FD1F7F3CFA6E0B0E0E1E1FCE00C942A
:10182000782E26E0FC01DE01119601900D922A959A
:10183000E1F7FC01258189819A81222399F06623B1
:1018400089F00E94AC0B182F682F89819A810E9421
:101850006E0969817A81812F0E948F0B2696E3E0C1
:101860000C94942E0E943A09182FF3CFA4E1B0E013
:10187000ECE3FCE00C946E2EA0900504B0900604FE
:1018800081E090E0909306048093050481EDC82EDA
:1018900083E0D82E00E0760110E015C0F401259118
:1018A0003491472D612F802F0E94210B82E0880EFA
:1018B000911C7394E6E07E12F1CFFCE0EF0EF11C78
:1018C0001F5F183019F04701712CE8CF0F5F80E6D9
:1018D000C80ED11C0430F9F61A8219821C821B82B0
:1018E0001E821D8218861F8284EB90E09A8789876A
:1018F00009EA11E04AE050E0B801CE0101960E94E9
:10190000752F065F1F4F093FE1E01E0799F77E0123
:10191000FBE0EF0EF11C8AE0F70111928A95E9F7DE
:101920008FEF9FEF988B8F8787E08C8B4AE050E09A
:10193000B801C7010E94752F065F1F4F0934F2E0FE
:101940001F07A1F7B0920604A09205046496EDE08B
:101950000C948A2E80E00E94F80A60E088E290E011
:101960000E94512F0E94360C0E94110B81E00E94B0
:10197000F80A08959B01883070F49AE0899FB001BD
:10198000112467557E4F4AE050E0C9010E941D2F87
:1019900090E080E008958FEF9FEF0895AAE0B0E017
:1019A000E4EDFCE00C94792E9C0137552F3F310576
:1019B00009F068F4BE016F5F7F4F0E94BA0C892B5B
:1019C00031F489859A852A96E2E00C94952E84EB71
:1019D00090E0F9CFAAE0B0E0E0EFFCE00C946F2ECD
:1019E0000DE813E08BE7C82E83E0D82E99EFE92E9F
:1019F000FF24F39427E0922E3AE7A32E33E0B32E90
:101A000088248394D6010D931D936D014AE050E024
:101A1000B701CE0101960E941D2FF8013896DF0113
:101A2000892D1D928A95E9F789819A81D8011196AD
:101A30009C938E938F8112968C9312978D8113961F
:101A40008C931397888514968C9314978985159693
:101A50008C9315978B819C8117969C938E931697E8
:101A600018961C9218978A8587FF3CC01E961C9278
:101A70001E921D9780FF03C0D80118968C9281FF9B
:101A800004C0F80190859260908782FF07C0D8015A
:101A900018969C911897946018969C9383FF04C0A5
:101AA000F80190859860908784FF07C0D801189648
:101AB0009C911897906118969C9385FF04C0F8013B
:101AC000808580628087015F1F4FFAE0EF0EF11C76
:101AD00089E4E81682E0F80609F094CF2A96ECE053
:101AE0000C948B2EF801B686A586C4CFB0E0A0E09A
:101AF000ECE7FDE00C946F2E49015A016B017C016B
:101B00000E947A068401A4016A2D7B2D88E090E072
:101B10000E94632F94014A2D5B2DB601C70100E29C
:101B20000E94DC2E622F84E290E00E94512FCDB7FC
:101B3000DEB7ECE00C948B2EB0E0A0E0E2EAFDE032
:101B40000C946F2E182FC62FD42F822E0091DE02F8
:101B500000FF51C08091DF02811308C08091E00234
:101B6000861304C08091E102841729F080913B0222
:101B7000826080933B02E02FE695E695F0E0E25B21
:101B8000FE4F808180933902802F8C7F8430E9F46E
:101B9000ED2FD93708F0E8E7F0E0EF52FD4FC11123
:101BA0002FC02491F22FE22F00FF0FC08091360149
:101BB0009091370133E0839FD0011124A45CBD4F85
:101BC000891708F492C00E9456061093DF02C09352
:101BD000E002D093E102882071F02091DE02609152
:101BE000E2027091E302312FAE018091E402909104
:101BF000E5020E94760DCDB7DEB7ECE00C948B2E9B
:101C0000EC2EF12CE4919E2ECE2ED12C26E0129FAC
:101C1000C00111242FEF30E0B9010E94A02E812FC6
:101C200090E0880F991FF5E5F69FA001F79F500DF2
:101C30001124841B950BB82EBB0CB80EA9014E19AC
:101C40005F094C9DC0014D9D900D5C9D900D112430
:101C5000F92FCB9DA0011124452F5527D901A41B95
:101C6000B50BAC9DA001AD9D500DBC9D500D112438
:101C7000D901AB19B1095D01AE9CD001AF9CB00D8B
:101C8000BE9CB00D1124AB2FBB272A1B3B0B2C9DF8
:101C9000D0012D9DB00D3C9DB00D11242B2F623035
:101CA0007105A1F050F46115710509F47DCF613023
:101CB000710581F0292FF52F77CF6430710569F018
:101CC00080F06630710509F46FCFF4CF2E2FE92F25
:101CD000FB2F6ACF2E2FE52F67CF292FFE2FEB2F5B
:101CE00063CFE92FF92D252F5FCF1196EC93119734
:101CF0002C931296FC9312978F5F139661CFEEEDA3
:101D0000F2E0438121E1421B08F440E021E06281DE
:101D100081810E949C0D0895EEEDF2E0438121E166
:101D2000420F08F44FEF21E0628181810E949C0DF7
:101D30000895EEEDF2E0628121E1621B08F460E0BB
:101D400021E0438181810E949C0D0895EEEDF2E037
:101D5000628121E1620F08F46FEF21E0438181810C
:101D60000E949C0D0895EEEDF2E0818121E0438117
:101D700062818A500E949C0D0895EEEDF2E081810F
:101D800021E043816281865F0E949C0D08958091CD
:101D9000E202882319F081508093E2022091DE0252
:101DA0003091DF024091E0025091E1026091E20245
:101DB0007091E3028091E4029091E5020E94760D19
:101DC00008958091E202833018F48F5F8093E202DD
:101DD0002091DE023091DF024091E0025091E10259
:101DE0006091E2027091E3028091E4029091E50239
:101DF0000E94760D08952091DE0220FF24C02370FA
:101E000024602093DE0280913B02816080933B023C
:101E1000662381F03091DF024091E0025091E102AF
:101E20006091E2027091E3028091E4029091E502F8
:101E30000E94760D20E04091E1026091E0028091E5
:101E4000DF020E949C0D08958091DE0286958695A2
:101E5000815009F481E061E00E94FB0E089561E089
:101E600081E00E94FB0E08959091260492FB2227A8
:101E700020F9281779F080FB92F99093260460915D
:101E800025047091260484E090E00E946F2F82E088
:101E90000E94D50908954F925F926F927F928F9220
:101EA0009F92AF92BF92EF92FF920F931F93CF93A7
:101EB000DF937B01FB0140805180628073809FB77C
:101EC000F8948090280490902904A0902A04B0905F
:101ED0002B049FBF84189508A608B708F4E68F1650
:101EE0009104A104B10418F4C1E0442329F1C82FDE
:101EF000880FDD0BFE0183E0EE0FFF1F8A95E1F7EF
:101F0000EF5FFE4F8181928183519E4F408150E06F
:101F10000417150708F4A801B9010E940D2FCE017E
:101F20000E94F32DC82F882339F00E942C05F70159
:101F300060837183828393838C2FDF91CF911F9174
:101F40000F91FF90EF90BF90AF909F908F907F90F8
:101F50006F905F904F900895ABE0B0E0E2EBFFE050
:101F60000C94772E88E0EEEDF2E0DE011196019000
:101F70000D928A95E1F78091390290913A02A091F1
:101F80003B0289879A87AB8741E08B85811101C02D
:101F900040E00BE010E09E012F5F3F4F69E072E0F0
:101FA00084E00E944B0F811110923B022B96E4E0DB
:101FB0000C94932EA4E0B0E0E0EEFFE00C94782EB9
:101FC000409105025091060260910702709108024B
:101FD0002FB7F8948091280490912904A0912A04A5
:101FE000B0912B042FBF841B950BA60BB70B11E0F0
:101FF00084369105A105B10570F10E94A9066E5FB6
:102000007F4F8F4F9F4F69837A838B839C8380910F
:102010001A0190911B0183519E4F4091190150E08C
:102020004530510510F044E050E0BE016F5F7F4F36
:102030000E940D2F83E090E00E94F32D182F88233B
:1020400051F00E942C056093050270930602809364
:10205000070290930802812F2496E3E00C94942EBB
:10206000EF92FF921F93CF93DF9300D000D00F9297
:10207000CDB7DEB77B0190E080E00E94F32D182FF2
:10208000882309F46DC04091040150E041155105C9
:1020900011F041E050E0609105017091060163513B
:1020A0007E4FCE0105960E940D2F4091E501509183
:1020B000E6016091E7017091E8012FB7F8948091F3
:1020C000280490912904A0912A04B0912B042FBFD9
:1020D000841B950BA60BB70B84369105A105B105A2
:1020E00038F48EEE91E00E9496039D818917C1F12C
:1020F00081E090E00E94F32D882309F458C04091BC
:102100000C0150E04530510510F044E050E0609182
:102110000D0170910E0163517E4FCE0101960E9418
:102120000D2F8EEE91E00E9496039D8189133FC092
:102130000E942C056093E5017093E6018093E7010E
:102140009093E80189819A81AB81BC818093E10100
:102150009093E201A093E301B093E40111E00EC07B
:102160008091EE019091EF01A091F001B091F10109
:1021700089839A83AB83BC831111E4CF8091E10101
:102180009091E201A091E301B091E401F701808315
:102190009183A283B383812F0F900F900F900F90A4
:1021A0000F90DF91CF911F91FF90EF90089510E075
:1021B000E5CF0F931F93CF93DF93EC0144E050E002
:1021C00062EF71E00E94002F41E0892B09F440E0AA
:1021D00004E010E09E0169EE71E082E00E944B0F86
:1021E000DF91CF911F910F910895A3E1B0E0EBEF44
:1021F000F0E10C946E2E8E01045F1F4F88E0D80131
:102200001D928A95E9F784E4C82E81E0D82EF12C3E
:10221000E12CAA24A394B12C2EE4822E21E0922E4C
:10222000F60181916F018F3F09F442C0F894E82FC5
:10223000E295EF70F0E021A18F70A50102C0440F7C
:10224000551F8A95E2F7CA01922F982B91A392A16C
:102250008095892382A3789400C0E8E4F1E0712C92
:1022600031E021912F3F09F4A3C0A22FA295AF70B6
:10227000B0E090968C9190E02F7002C09595879574
:102280002A95E2F780FD94C0832F782A330F8E16AB
:102290009F0639F7F601319780818F3F11F00E9438
:1022A000920650EA5A95F1F7F801EE0DFF1D708283
:1022B0008FEFE81AF80A94E0E916F10409F0B0CFBC
:1022C00048E050E0B80182E192E00E94002F0097C0
:1022D00041F028E0F801A2E1B2E001900D922A95C8
:1022E000E1F700911B0210E0015D1D4F892B09F4FD
:1022F00061C081E08093D9010E9438059093D80194
:102300008093D701F12CE0902104EE2009F4ACC0B9
:1023100019821A821B821C8280910D028A3008F079
:102320006DC040E350E1BE016F5F7F4FC8010E9466
:10233000C50A882309F487C049ED50E1BE016F5FEB
:102340007F4FC8010E94C50A882309F47CC04AED6A
:102350005FE0BE016F5F7F4FC8010E94C50A8823FE
:1023600009F471C04CEA5FE0BE016F5F7F4FC801A6
:102370000E94C50A882309F466C010920D0280915C
:102380001A0290E044E050E0BE016F5F7F4F815D34
:102390009D4F0E94002F21E02093E001892B09F03E
:1023A00044C0E12C8E2D8F296396EDE00C948A2E8B
:1023B00080E06BCFF090D901FF2009F4A3CF80918A
:1023C000D7019091D8010E941D05059708F49ACF76
:1023D00044E050E062E172E0C8010E94002F892BC6
:1023E00059F084E0E2E1F2E0D80101900D928A9583
:1023F000E1F71092D90187CFF12CFBCF8091DA0160
:102400009091DB010E941D05843F914008F089CF27
:102410008091E001882329F284E0FE013196DF01FA
:102420001D928A95E9F71092E001E0911A02F0E01E
:10243000E15DFD4F89819A81AB81BC81808391836D
:10244000A283B383AFCF80910D028F3F31F08F5FB6
:1024500080930D028A3008F492CF0E943805909341
:10246000DB018093DA01D4CFC0901A02D12CF6019F
:10247000E15DFD4F6F0184E0F801AEEEB1E0019047
:102480000D928A95E1F78EEE91E00E94960380937B
:10249000ED0184E0E2EFF1E0D60101900D928A9522
:1024A000E1F78090F6019090F701A090F801B090CC
:1024B000F9018091DC019091DD01A091DE01B091E4
:1024C000DF0188169906AA06BB06B1F08092DC01EE
:1024D0009092DD01A092DE01B092DF010E942C05F6
:1024E000861A970AA80AB90A80920E0290920F02E1
:1024F000A0921002B09211028BE0EAEFF1E0DE014F
:10250000119601900D928A95E1F72981822F869587
:1025100086950A81DB80CC801B85109204021123F2
:1025200009F440CF10FF0AC09091DE0220FF0FC0D7
:1025300091609093DE0260E00E94FB0E11FF32CFAB
:1025400020E04C2D6D2D802F0E949C0D2BCF9E7F67
:102550009093DE0280913B02816080933B020E9457
:102560005606ECCF80913901882359F180912504DA
:1025700087FF27C00E94E00880936B0140E250E093
:102580006AEA71E08AE691E00E94002F892BC1F08F
:1025900080E2EAE6F1E0AAEAB1E001900D928A95C4
:1025A000E1F7E0912304F0912404309749F086E0AC
:1025B00080936A010480F581E02D8AE691E0099517
:1025C00008950E94E0088093620148E050E06AECC0
:1025D00071E082E691E00E94002F892B89F388E068
:1025E000E2E6F1E0AAECB1E001900D928A95E1F704
:1025F000E0912304F0912404309711F30280F381D9
:10260000E02D82E691E0DBCFCF93DF93EC014A85AA
:102610005B856E857F850E94B4058B810E94D20800
:102620008C810E94D9080E94B21286E0FE011192AC
:102630008A95E9F7DF91CF910895CF93DF93EC016D
:102640008D8181FD17C082608D8380911D049B81E7
:10265000892B80931D0480911E049C81892B80937B
:102660001E040E94B212488559856E857F85CE0171
:102670000E94B4051092200410921F048D8180FDE9
:1026800003C0CE010E940413DF91CF9108951092F0
:102690001E0480913901882381F08091250487FFF1
:1026A0000CC0ECE6F1E08EE1DF011D928A95E9F7BE
:1026B00010921D040E94B2120895E4E6F1E086E053
:1026C000F3CFAAE2B0E0E7E6F3E10C94782E8BE3D7
:1026D00094E02091F100DC012D93CD01B4E083342E
:1026E0009B07B9F780913C04833009F472C0B8F4B9
:1026F000813009F449C0823009F4B3C08091E80008
:1027000083FF96C280913B0490913C049A3008F07C
:102710008FC2E92FF0E0E157F04D0C94B42E8A30CF
:1027200009F48EC08B3009F471C0893039F780917B
:102730003B04813219F780913F0490914004009747
:1027400011F00297D9F68091E800877F8093E80026
:102750008091E80082FF38C09091F3008091F200F0
:10276000029731F48091F100813011F0863021F42C
:102770008091F10080932E048091E8008B77809304
:10278000E8000E94FD03BACF80913B04813A09F032
:10279000B5CF8091E800877F8093E80080913F0467
:1027A00090914004892B61F468E08FE294E070E03E
:1027B0000E94A9048091E8008B778093E8009ECF67
:1027C00060E090E080E0F3CF809139048111C0CFC8
:1027D00095CF80913B04813A09F090CF80913F04DE
:1027E00090914004892B09F089CF8091E800877F80
:1027F0008093E8008091E80080FFFCCF8091390150
:102800008093F1008091E8008E77B9CF80913B04EE
:10281000813209F073CF80913F0490914004892B5D
:1028200009F06CCF8091E800877F8093E8000E94D8
:10283000FD0380913D04809339010E9447135ECFD0
:1028400080913B04813209F059CF8091E800877F65
:102850008093E8000E94FD0380913E0480932D0444
:102860004DCF80913B04813A09F048CF8091E80038
:10287000877F8093E8008091E80080FFFCCF809103
:102880002D04BECF803899F0823809F0D1C18091F3
:102890003F048F70873008F0CBC18093E9008091AE
:1028A000EB0085FB882780F91092E90006C0809133
:1028B000370490913804911182609091E800977FDD
:1028C0009093E8008093F1001092F1008091E8006D
:1028D0008E77AAC1882309F498C1823009F0A8C173
:1028E00080913D0481119BC180913F048F702FEF37
:1028F000280F263008F09CC18093E9002091EB005E
:1029000020FF8DC1933031F48091EB008062809381
:10291000EB0085C19091EB0090619093EB0021E07A
:1029200030E001C0220F8A95EAF72093EA00109266
:10293000EA008091EB008860EACF811179C11091A3
:102940003D041F778091E3008078812B8093E30022
:102950008091E800877F8093E8000E94FD038091CA
:10296000E80080FFFCCF8091E30080688093E30063
:1029700082E0111183E0809339045AC1805882307B
:1029800008F056C120913D0430913E042C3DE3E017
:102990003E07A1F583E08A838AE289834FB7F894E2
:1029A000DE01139620E03EE051E2E32FF0E0509389
:1029B0005700E49120FF03C0E295EF703F5FEF7096
:1029C0008E2F90E0EA30C0F0C7968D939D932F5FD5
:1029D000243159F74FBF8091E800877F8093E8004A
:1029E0006AE270E0CE0101960E94A9048091E8009D
:1029F0008B778093E8001CC1C096E7CF80913F049D
:102A000090914004432F55274330510509F44AC0A3
:102A100078F54130510509F485C08BE590E0E1E59A
:102A2000F5E04230510509F003C12091E800277F0D
:102A30002093E800209141043091420482179307CB
:102A400008F49C0140E02115310509F070C04111E6
:102A50006EC08091E80082FDC9CF8091390488233F
:102A600029F2853019F28091E80083FFF2CFBECFC2
:102A70004132510509F447C04232510509F0D8C02E
:102A80008330910508F0D4C0FC01EE0FFF1FED5A12
:102A9000FE4F0190F081E02D805B9E4FDC018C9118
:102AA00090E01DC0332721303105E9F021153105B3
:102AB00079F022303105F9F02330310509F0B8C042
:102AC000EEEBF5E0E4918E2F90E0EEEBF5E007C041
:102AD000ECEFF5E0E4918E2F90E0ECEFF5E000975D
:102AE00009F4A6C0A2CFEAEEF5E0E4918E2F90E0C3
:102AF000EAEEF5E0F4CFECEDF5E0E4918E2F90E016
:102B0000ECEDF5E0ECCF8330910508F091C0880F33
:102B1000991FFC01E75AFE4F0190F081E02D89E0FA
:102B200090E083CF82E190E0ECEAF5E07ECF809107
:102B30003904882309F45ACF853009F457CF80919E
:102B4000E80083FD53CF8091E80082FD82CF809121
:102B5000E80080FF78CF9091F3008091F20021157A
:102B6000310519F08830910550F041E0089709F0DF
:102B700040E08091E8008E778093E80064CF449134
:102B80004093F1003196215031090196E8CF803809
:102B900009F04EC08091E800877F8093E800809123
:102BA0003A048093F10092CE811142C010913D040D
:102BB0001230F0F58091E800877F8093E800109351
:102BC0003A040E94FD03112311F084E005C08091B6
:102BD000E30087FDFACF81E08093390442E061ECA5
:102BE00081E00E941C0442E261EC84E00E941C042B
:102BF00042E261EC82E00E941C0442E260EC83E06D
:102C00000E941C048091390413C080913D048130DE
:102C100079F481E0933009F080E0809338041092D9
:102C2000E9008091E800877F8093E8000E94FD031F
:102C30008091E80083FF0AC08091E800877F80933D
:102C4000E8008091EB0080628093EB00AA96E3E0BD
:102C50000C94942E0E9447132FEF84E39CE02150A4
:102C600080409040E1F700C0000088E19AE00FB694
:102C7000F894A895809360000FBE90936000FFCFFA
:102C8000882321F00E94D2080E94B212089588235E
:102C900039F090911D04982B90931D040E94B2125C
:102CA0000895882321F00E94D9080E94B212089545
:102CB000882339F090911E04982B90931E040E9453
:102CC000B2120895882341F09CEF980F913A28F4AE
:102CD0000E9444050E94B212089590E2980F983025
:102CE000D8F7877091E001C0990F8A95EAF7892F8C
:102CF0000E94D908EFCFFF920F931F93CF93DF93DA
:102D0000F82E00911804109119040115110509F409
:102D100049C01092170410921604109213041092D6
:102D20001404D8011696CD91DC919E013A95211597
:102D30003F4108F4D07ED1E0C11101C0D0E0D801FC
:102D40001996ED91FC911A97309731F01B966D9181
:102D50007C9180E00995D823DD2339F08CEF8C0F2E
:102D6000813A30F58C2F0E944405FF2099F0E091C4
:102D70001804F0911904808584FD0CC0809115041D
:102D8000882341F0808191819C01215031092F33AA
:102D90003E47A0F00E94B21210921904109218043B
:102DA00010921504C801CDB7DEB7E5E00C94922E61
:102DB0000E94B2128C2F0E946216D7CF0E94BA05D1
:102DC000E9CFCF93C82F8823B1F18CEF8C0F813AD4
:102DD000A0F580913901882301F18091250487FFB6
:102DE0001CC0EC2FE695E695E695F0E0E659FE4F1F
:102DF000828190E04C2F477021E030E002C0220F2A
:102E0000331F4A95E2F782239323892B79F08C2F85
:102E10000E9444050E94B21209C0E4E6F1E08191EB
:102E2000C817A9F381E0EA36F807C9F78C2F0E948A
:102E30006F050E94B212CF91089580E28C0F883006
:102E4000D0F7C77021E030E001C0220FCA95EAF741
:102E500080911E04822B80931E04EBCF1F93CF938F
:102E6000DF93182FEB010E94E116209739F4812F90
:102E70000E946216DF91CF911F9108958FE99FE024
:102E80000197F1F700C000002197EFCFB0E0A0E07C
:102E9000ECE4F7E10C94732E6B01C42FD22FFC01EC
:102EA00085818823A9F040931C040E9438059093E3
:102EB0001B0480931A04C77081E001C0880FCA9573
:102EC000EAF70E945816CDB7DEB7E8E00C948F2ED3
:102ED00010911C04141339C080911A0490911B04A2
:102EE0000E941D057C01C6010E94CE0CE816F90661
:102EF00060F5C0E2CD0F1D17C1F080E2810F883070
:102F000048F4177081E0012E01C0880F0A94EAF797
:102F10000E945116C83048F481E09D2F977001C07F
:102F2000880F9A95EAF70E94581670E060E0802FAB
:102F30000E942E17C83038F6D77081E001C0880F84
:102F4000DA95EAF70E945116BECFC77081E001C042
:102F5000880FCA95EAF7F6CFB0E0A0E0E2EBF7E120
:102F60000C94712EEC018AE0A82E2881222309F40A
:102F7000A6C0213009F049C08981813079F48E01E1
:102F80000E5F1F4F8A8170E060E0893311F460E5C5
:102F900070E00E942E17E8012196E7CF823039F4C5
:102FA0008E010E5F1F4F8A810E94E116F4CF83309D
:102FB00039F48E010E5F1F4F8A810E946216EBCF9B
:102FC000843011F02196E8CF2A81229690E080E0AB
:102FD000AE014F5F5F4F2053330B2A30310550F065
:102FE0000097D1F2EFE9FFE03197F1F700C0000060
:102FF0000197F6CFA89EB001A99E700D1124C901BA
:10300000860F971F2981EA01E3CFE22FF0E0E05D10
:10301000F94FB490822F86958695869590E0FC01B5
:10302000E05EF94FE4902770F12C022E02C0F59477
:10303000E7940A94E2F7F1E0EF22FF24FC01E05F5D
:10304000F94FC490D12C022E02C0D594C7940A9493
:10305000E2F731E0C322DD24FC01E050FA4F049195
:1030600010E002C0159507952A95E2F70170112727
:10307000E114F10419F081EE0E94E116C114D104AB
:1030800019F086EE0E94E11670E060E08B2D0E9440
:103090002E17C114D10419F086EE0E946216E114B5
:1030A000F10419F081EE0E9462160115110509F470
:1030B00073CF70E060E08CE20E942E176DCFCDB729
:1030C000DEB7EAE00C948D2ECF93DF93EC010E94E3
:1030D000120A9E01205E31092830310510F0209738
:1030E00041F40E9458168C2F0E94E116DF91CF9177
:1030F00008950E944716F7CFA7E0B0E0E2E8F8E1B4
:103100000C94692E7C01DC0114968C91882309F4BF
:1031100057C161E0C7010E940B0C8C01F70185814A
:10312000882319F180911F04909120040097E9F001
:1031300008171907D1F0992764E0880F991F6A953D
:10314000E1F7FC01E150FD4F20812460208386508F
:103150009D4FDC010D931C930E941D1310921D04C2
:1031600061E0C7010E940B0C8C01F7018581882367
:1031700009F4B1C0C80197578038910508F0DEC046
:10318000D02EFFE0F01708F40BC18FEF93E00E9400
:103190002D2F811105C109E412E0D11036C019822A
:1031A0001A821B821C8299249A9468013FEFC31AE9
:1031B000D30AC8010E942D2F89831A82882309F41B
:1031C000EFC0813009F081C0580142E0A40EB11C6B
:1031D000C6010E942D2FC82E8A83882309F4E0C0DF
:1031E000C5010E942D2FD82E8FEF8C0D8330D8F47F
:1031F000580153E0A50EB11CDB82DD2021F0CE0189
:1032000001960E94AC178501D0CF011524E012076A
:1032100009F4C6C0C8010E942D2F811101C0DA94A3
:103220000F5F1F4FBACF8BEF8C0D833030F5C80185
:103230000396DB825C01DD2031F35801A4E0AA0E85
:10324000B11C0E942D2F8C838823E9F28B819C81F5
:103250008130BFEF9B0710F0982F8827E6E0CE164D
:1032600031F0F7E0CF1631F00E945A23CCCF0E9404
:103270003523C9CF0E94AF22C6CF24E0C212C3CFEC
:10328000580134E0A30EB11CC80103960E942D2FF3
:10329000DD2009F485C0882309F482C08150990B90
:1032A000989E9001999E300D11244D2D4150550B43
:1032B000CA01820F931F019708F4A5CFAFE9BFE0C1
:1032C0001197F1F700C00000F6CFCE0101960E94E1
:1032D000AC17560198CF6801E7E5DE1AFFEFCF166D
:1032E000D10409F058F560EF72E08C2D0E94BA0C01
:1032F000892B21F5C60144E0880F991F4A95E1F713
:10330000FC01E650FD4F22812130A1F52091F00211
:103310003091F102232B91F02091F2023091F302CF
:10332000232B61F02091F4023091F5024091F602D6
:103330005091F702242B352B232B21F1D701159621
:103340005C90552009F440C00E35BCE71B0729F1FD
:103350000F35ECE71E0741F00D35FCE71F07A1F51F
:10336000809100018823C9F01092000180E00E9442
:103370007B1616C0223011F72091F4023091F5022D
:10338000232BE1F2FC01E150FD4F20812E7F2083B1
:1033900086509D4F0E941D13D1CF81E08093000184
:1033A0008091A901877061F0D70115968C918823CF
:1033B00039F08091260482FF03C082E00E94D50983
:1033C0002796E2E10C94852E80910001882309F470
:1033D000F2C4480120EE821A91084090D4018091F5
:1033E000A601482A80911E04482A38E083169104D9
:1033F00008F086C098012770332781E090E001C073
:10340000880F2A95EAF7552009F477C0482AD70192
:103410008D919C910E943A0921E030E0390102C06F
:10342000660C771C8A95E2F7E0911804F091190474
:10343000FF83EE8320908A0130908B011D822D81C5
:10344000E22FF0E0EE0FFF1FE558FC4FC080D18067
:10345000C114D10409F40AC5411005C0D601129661
:103460008C91811187C0F601838190E0862197219C
:10347000892B09F47FC08085982F977009F487E025
:10348000F8E08F16910408F055C0552009F44EC09D
:1034900086958170882309F46DC0D601AD90BC90EB
:1034A0000A151B0519F4552009F464C0EE81FF814B
:1034B000CE16DF0609F45EC0D6011D96ED91FC9193
:1034C000309721F08081882309F454C0642DC6010F
:1034D0000E940B06882309F44DC00A151B0509F04C
:1034E0001FC50115110509F420C5511020C5A214EE
:1034F000B30409F03FC0512C1AC58095482287CFEC
:10350000552009F49CC410938B0100938A010E94FA
:103510002C0560930F047093100480931104909312
:103520001204109217041092160471CF82FB8827A0
:1035300080F9B0CF5520F1F08170ACCF0E946216B7
:1035400014C50497813A910548F48A2D0E946F05AD
:10355000552009F430C40E94B21222CF0E94B21248
:103560008FE39CE90197F1F700C000008A2D0E94CB
:10357000E116EECF9D819F5F9D8361CFFC0120818D
:1035800031810217130709F00FC451100FC41092B4
:10359000150480E00E947B160EC4902F812F4AC430
:1035A000F9014485558566857785C9010E94B40572
:1035B000D60115968C9181FF6DC4C6010E9404133B
:1035C00080911F04909120040817190709F062C424
:1035D0001092200410921F045DC406E221EE41EE19
:1035E0006AE17CE7C7010E944617DACE07E225EEC2
:1035F00045EE6BE17CE7F6CF06E221EE40EE68E1B6
:103600007CE7F0CF07E225EE44EE69E17CE7EACF04
:1036100006E221EE42EE6CE17CE7E4CF07E225EE24
:1036200046EE6DE17CE7DECF08E221E045EE6EE19B
:103630007CE7D8CF8091250481608093250495C0D4
:10364000809126048860809326048FC08091250491
:103650008260F3CF809125048460EFCF80912504B0
:103660008860EBCF809126048160EDCF80912604A5
:103670008260E9CF809125048061DFCF80912504AD
:103680008062DBCF809125048064D7CF0E944713EE
:10369000809125048068D1CF809125048C60CDCFA6
:1036A000809126048360CFCF809125048E7FC5CF83
:1036B00080912604877FC7CF809125048D7FBDCF61
:1036C000809125048B7FB9CF80912504877FB5CF6A
:1036D000809126048E7FB7CF809126048D7FB3CF53
:1036E000809125048F7EA9CF809125048F7DA5CF61
:1036F000809125048F7BA1CF0E94471380912504E0
:103700008F779BCF80912504837F97CF809126046C
:103710008C7F99CF8091250482FB992790F921E035
:10372000922790FB82F990FB83F987CF8091260442
:10373000982F909591708E7F892B90FB81F983CF84
:1037400090912504892F8F7B96FF806476CF0E940D
:10375000471390912504892F97FB87F980586DCFE7
:1037600061E08EE090E00E94512F609125047091FD
:10377000260484E090E00E946F2F0E94471310CE31
:1037800060E0EFCF90912504892F8F7E94FF8061B8
:1037900054CF90912504892F8E7F90FF81604DCF6B
:1037A00090912604892F877F93FF88604CCF85E313
:1037B000A7C385E3B2C38091DE0280FF1CC0282F1F
:1037C0002E7F2093DE023091DF024091E002509183
:1037D000E1026091E2027091E3028091E402909133
:1037E000E5020E94760D80913B02816080933B024E
:1037F0000E945606D5CD81608093DE0261E08695F9
:1038000086950E94FB0ECCCD44E25FE06FE27FE044
:103810000E945006C5CD4FE25FE064E27FE0F8CF42
:1038200043EB5EE06DEB7EE0F3CF4DEB5EE063EBF0
:103830007EE0EECF49E95EE066EA7EE0E9CF46EA67
:103840005EE069E97EE0E4CF4FE75EE06CE87EE0B1
:10385000DFCF4CE85EE06FE77EE0DACF47EC5EE07A
:1038600061EE7EE0D5CF41EE5EE067EC7EE0D0CF4A
:1038700061E081E0C6CF0737FCE71F0709F463C0AA
:1038800008372CE7120709F462C0F701858100812F
:103890001181882309F49AC0C8010E94AC0BD82E6C
:1038A000682FC8010E946E09B8018D2D0E948F0BF0
:1038B0000E94B407D82E192F882ED7011596BC90D8
:1038C00015971696CC90C2949FE0C9228091A901C9
:1038D000877009F1AB2CBB20F9F0812F807F8034F9
:1038E00069F080E28D0D8830B0F0812F807E8032CB
:1038F00029F4B1E0BD1578F4CC2069F0809126045C
:1039000082FF09C082E00E94D5098091A9018770D9
:10391000AA24A3948111A12C912E92948FE0982235
:10392000EBE0E91508F4B1C0E92DF0E0E756F04D01
:103930000C94B42E81E00E94EC0943E062E081E047
:103940000E94A8092DCD81E00E94C809F6CF82E02F
:10395000FBCF03303CE7130731F150F401155CE76E
:103960001507A1F001301C4709F08FCF0E942A16DD
:103970000B359CE7190741F10C35ACE71A07D1F07C
:103980000A351C4709F081CF81E01BC00E94471314
:10399000EFEFF4E32CE0E150F0402040E1F700C00D
:1039A00000000E940C056FEF7FEF90E080E00E9426
:1039B0006F2FDCCF8091260482FB882780F991E06D
:1039C00089270E94340F61CF80E0FBCFC8010E949D
:1039D0003A09D82E69CF012F0F70107F11F0029590
:1039E000007FBB20B9F0002369F080E28D0D8830A4
:1039F00010F0811009C080911E04082B00931E0452
:103A00000E94B2128D2D3FC080911D04082B00939F
:103A10001D04F6CF8D2D0E9462160023B1F180E2C5
:103A20008D0D883010F0811004C0802F0E94D908BD
:103A300003C0802F0E94D2080E94B21226C0012F1C
:103A40000F70107F103211F00295007F882059F01E
:103A5000F1E08F1609F488C0BB2009F494C0CC2093
:103A600009F442C0CFCF8091260482FD39C0BB202B
:103A700089F1002339F080911E04082B00931E0465
:103A80000E94B21280E00E94E116492D4850550B69
:103A90004430510510F40E94A305AA20B1F0809192
:103AA000A90180FD12C0D70115961C9286958695B6
:103AB00086950E94EC09C7010E947C188091A9019B
:103AC0008695869586950E94C80960E0C7010E9488
:103AD0000B0C76CC80E00E9462160023B1F2A5CFD9
:103AE000BB2069F1C11004C0802F0E945816CDCFB1
:103AF00021E0C21210C01091D401802F8123081739
:103B000021F20E9438059093D3018093D201012BBA
:103B10000093D401BACF35E0C312B7CF802F0E94F3
:103B20005816802F0E94BD088091A601902F9823DF
:103B3000091709F4AACF082B0093A601A6CFC1103C
:103B40000AC0802F0E945116802F0E94BD08802F2E
:103B50000E9426099ACF41E0C41297CF80911E049B
:103B6000802309F492CFEDCFBB2029F055E05C15FE
:103B700008F48BCFB9CF84E08C1508F486CF802F62
:103B80000E94511682CFCC20D1F399E3891209C04B
:103B9000AFEFB7EEE3E0A150B040E040E1F700C086
:103BA00000008D2D0E94621670CF812F837089F5E1
:103BB000B1106BCF4D2D429546954770440F440F81
:103BC0008D2D8F70042E01C0880F0A94EAF72D2DD9
:103BD0002071D4FE07C02FE030E001C0220F4A95CB
:103BE000EAF72095169516951370123069F050F487
:103BF00030911C02113029F0822B83230E940F0A7E
:103C000044CF832B822BFACF282B80911C02822752
:103C1000F5CF8695BB2011F0812F8170882309F4A0
:103C200034CF4D2D429546954770440F440F8D2D4E
:103C30008F70042E01C0880F0A94EAF72D2D207191
:103C4000D4FE07C02FE030E001C0220F4A95EAF70A
:103C50002095169516951370123069F050F4309136
:103C60001D02113029F0822B83230E94A5090DCF5C
:103C7000832B822BFACF282B80911D028227F5CF30
:103C80001F70BB2029F0812F0E94EC098D2D2DCFB4
:103C90008D2D0E945116812F0E94C809F6CE8D2DC0
:103CA000F2EF8F16B1F1F81570F020EF8216D1F017
:103CB00031EF831691F0BB2009F466C0C110A2CE8B
:103CC000812F8F712AC043EF841651F154EF851272
:103CD000F2CF8091260482FD2FC0812F8F71BB20EF
:103CE000D9F21BC0BB2081F084E08C1508F4CDCE46
:103CF0001F7181E090E0012E01C0880F0A94EAF75D
:103D000090911D028927B1CF95E09C1508F4BDCE96
:103D1000EFCF812F8F71B110BFCF0E94EC09B5CECC
:103D200080E0BB2009F4A1CF1F7181E0012E01C00A
:103D3000880F0A94EAF799CFBB20C9F08091A901B6
:103D40008770843041F40E941F09812F8F710E9477
:103D5000C809A12C9ACEA4E0AC15D8F31F71812F0D
:103D60000E94EC0963E0812F0E94F809F2CFB4E0D1
:103D7000BC1530F40E941F0964E0812F8F71F4CFCD
:103D800081E00E94D509E5CFCC2059F0893309F0B4
:103D900008CFEFEFF7EE23E0E150F0402040E1F7ED
:103DA000FECE812F8F7178CF552029F0DC01189637
:103DB0008C9185FFEECBC8019755F8018F3F910597
:103DC00011F008F084C0FF2724E0EE0FFF1F2A95B2
:103DD000E1F79F0126503D4F6901D70115968C915F
:103DE000E150FD4F908180FB90F99083882309F486
:103DF000D7CB0E9438059093290280932802F601C0
:103E000082818F5F828380911D0490911E04892B93
:103E100083838091D4018483468157816685778529
:103E2000C6010E94B405D60115968C9181FFB5CBD1
:103E300090E080E090931F04809320042BC0809139
:103E40008A0190918B010817190781F410928B0158
:103E500010928A0110920F04109210041092110413
:103E600010921204109217041092160480911804F4
:103E700090911904009709F49ECFA8E08A16910446
:103E800008F07CCB642D0E940B06811103C081E0F9
:103E90000E947B16F70185818823A9F110921C04EA
:103EA000C80190578397E0F484E090E00E943B2F94
:103EB0009093260480932504F801E150F047E23204
:103EC000F10508F0B7CBEB55F04D0C94B42EE8514A
:103ED000FC47E730F105F0F6E953F04D0C94B42EB1
:103EE0000631FCE71F0709F082C080911E048A7A20
:103EF00091E009F490E090938C01811158CC89E213
:103F00000E946F0528CB06312CE7120709F061C02B
:103F100080918C0181114DCC89E20E9444051BCB1C
:103F2000A114B10409F0E3CA512CB12CA12C80E0FA
:103F30000E947B16D0921904C092180481E08093ED
:103F40001504F60185818093130451100EC0AB282F
:103F500061F0F601808191819C0124503109213A60
:103F6000310508F0EBCA0E944405D6011696AD90C3
:103F7000BC90C5019A9581159F4110F4E0EEBE22D8
:103F800077247394C50101978F339E4708F0712CF5
:103F9000D6011996ED91FC911A97309731F01B9646
:103FA0006D917C9181E009957822772079F0F60176
:103FB000868197810E94120A80931404C501F8E05B
:103FC0008F16910408F0BDCA0E94BA050E94B21271
:103FD000BFCA80911E048272F801E052F847E531B1
:103FE000F10508F048CCE253F04D0C94B42E07379D
:103FF0003CE7130709F49ECC08374CE7140709F097
:10400000A8CC82E098CCB0E0A0E0E9E0F0E20C942B
:10401000742E8091A501807F09F051C08091A40188
:10402000882309F44CC0E0917C0487E0D82E80916D
:1040300043048E1709F443C00E2F10E0ED9DF001EC
:104040001124EC5BFB4F84818823F1F1D09EE001C9
:10405000D19ED00D1124FE01EC5BFB4F918180912C
:10406000A001981331C0908180919F0198132CC0BA
:104070008581811129C0E280F3808091A101909116
:10408000A201E81AF90A60E08FE991E00E940B0CA6
:104090000E94CE0CE816F906B8F48091A5018F7045
:1040A00080618093A501C65BDB4F88818F70806142
:1040B00088838FE991E00E947C180E943009CDB777
:1040C000DEB7E7E00C94902EF8013196E770AFCFA1
:1040D000A4E1B0E0EEE6F0E20C946C2E8C0186E0F8
:1040E000F801DE011F9601900D928A95E1F7F80123
:1040F000F480E5808FE9882E81E0982E8091A301DD
:1041000081112AC0F11003C0FF24F3941CC0EE20DB
:10411000F9F0C8010E94E80BF82E8823C9F087E067
:10412000F801AFE9B1E001900D928A95E1F7809135
:10413000A301813031F480919F019091A0010E94F0
:10414000DB0B0E9403208F2D6496EFE00C94882EE9
:10415000C8010E947C18D8CFC280D380B090A4013F
:104160008091A1019091A2013601681A790ABB20C1
:1041700009F4F9C05080A18060E08FE991E00E94CD
:104180000B0C0E94CE0C6816790608F0A5C0FF2023
:1041900009F4BACF8091A501382F307F2091A0017A
:1041A000F8019181311158C0FE2C291314C02091BF
:1041B0009F01908129130FC0E11047C08F7080616B
:1041C0008093A5018FE991E00E947C188091A50160
:1041D000F8018683B8CFE11038C06A2D852D0E9482
:1041E00077036A2D852D0E947703E82E8111ABCFCE
:1041F0005F86A88A8F8598890E94DB0B292F2295DC
:104200002F70243058F49F70223088F0992399F051
:10421000F8019681907F79F4FE2C95CF2A5F2F705C
:10422000223068F0C8010E947C18EB2CF5CF99234E
:1042300011F0882389F3805E883070F3F3CF803FDC
:1042400058F3815F833070F7E7CF8091A5018160DB
:104250008093A501F12C77CF291315C020919F01E0
:104260009081291310C0E1100EC08683C8010E94FE
:104270007C1887E0F801AFE9B1E001900D928A95D2
:10428000E1F7FB2C60CFC8010E94E80B882309F4FA
:104290005FCFEE2009F45CCF8091A501803288F0D9
:1042A00020919F013091A00139872887DB86CA863B
:1042B0009091A3019C871D868E87CE0108960E944F
:1042C0007C1887E0F801AFE9B1E001900D928A9582
:1042D000E1F70E94032018CF8091A501982F907FCD
:1042E00051F48FE991E00E947C1887E0F40111926B
:1042F0008A95E9F7AFCFFF2009F406CF2091A001FE
:10430000F8019181291311C020919F0190812913F7
:104310000CC0E1100AC08683C8010E947C1887E0A7
:10432000F40111928A95E9F7ACCFC8010E94E80B1D
:10433000882309F40DCFEE2009F40ACF8091A5015E
:10434000803208F4BECF20919F013091A0013A83C2
:104350002983DC82CB829091A3019D831E828F836F
:10436000CE010196ACCF60E08FE991E00E940B0C8A
:104370000E94CE0C6816790608F0B7CFFF2009F42A
:10438000C3CEFE2CEE2009F4E3CE9091A001F801FB
:10439000818198132DC090919F018081981328C02E
:1043A0008091A1019091A201C81AD90AF4EBCF160D
:1043B000D104A8F49091A50190FD11C0907F79F0EF
:1043C0008091A501F8018683903F31F0982F907F6E
:1043D000905F8F70892B8683C8010E947C1887E0CC
:1043E000F801AFE9B1E001900D928A95E1F7ABCE0B
:1043F000C8010E94E80B811164CF8091A501816002
:104400008093A501C8010E947C189DCEABE1B0E06D
:10441000ECE0F2E20C94782E4E8B5F8B688F798FF4
:104420008A8F9B8F911110921D041D8A86E0FE01D8
:104430007696DE011F9601900D928A95E1F78091A4
:10444000260482FF1CC00E9438052091A7013091EC
:10445000A801821B930B8838934120F08091A90119
:1044600082FF79C00E9438052091D2013091D3019A
:10447000821B930B8838934110F00E94B2088B89FD
:10448000882329F061E0CE010F960E940B0C87E093
:10449000FE013F96DE01189601900D928A95E1F794
:1044A000CE0108960E94682081112AC087E0FE0193
:1044B0003896DE01119601900D928A95E1F78C8570
:1044C0008823F1F02091430430E0C9010196877000
:1044D000992740917C0448171906E9F097E0929FCC
:1044E000D001939FB00D1124AC5BBB4FFE01319600
:1044F00001900D929A95E1F7809343040E94300950
:1045000017E080917C0490914304891312C06B964C
:10451000E3E00C94942E0E944713109243041092EF
:104520007C0487E0EFE9F1E0DF011D928A95E9F76D
:10453000E7CF819FC00111248C5B9B4F0E946820B4
:10454000882329F380917C0490E001968770992755
:1045500080937C04D6CF82E00E94D50983CFA6E069
:10456000B0E0E5EBF2E20C94772E8C019093E70239
:104570008093E602011580E21807C0F4802F0E94A4
:104580006216C8010E94120A9801205E3109283083
:10459000310518F00115110531F40E9451162696C7
:1045A000E4E00C94932E0E944016F9CF80EF8983AB
:1045B0008A830E9438058160682F9C838B834981A0
:1045C0005A817C8181E090E00E940622E8CF0F931F
:1045D0001F93CF93DF938C01EB0160EF72E08C2F80
:1045E0000E94BA0C892B71F4DD27C851DD4F8881F8
:1045F000F801128218828330F1F048F4813059F0CA
:10460000823081F0DF91CF911F910F910895843016
:10461000B9F08530B9F78091F0029091F1020097DE
:1046200089F306C08091F2029091F302009799F30A
:104630000E94AF22E7CF8091F4029091F502F6CF6D
:104640008091F6029091F702009791F72091F00285
:104650003091F1028091F2029091F302211531051F
:10466000F1F2009729F7C901E3CFA6E0B0E0EBE350
:10467000F3E20C94792E9093E7028093E602811581
:1046800020E2920730F40E9464182696E2E00C942F
:10469000952E80EF89838A830E9438058160682F78
:1046A0009C838B8349815A817C8181E091E00E94C7
:1046B0000622EBCFCF93DF93EC010E943523CE018E
:1046C0000E94AF22DF91CF9108950F931F93CF9354
:1046D000DF938C01862F60EF72E00E94BA0C892B69
:1046E000B1F4C091F002D091F102209781F0F8016D
:1046F0008281833051F4CE010E945A23CE010E9460
:104700005A23CE010E945A2302C08430D0F7DF9191
:10471000CF911F910F9108950F931F93CF93DF9324
:104720008C01EB0160EF72E08C2F0E94BA0C892B98
:1047300009F05CC0FE01FF27D80112968C911297F8
:10474000E851FD4F8130B9F415969C9192FF02C05B
:1047500080830AC090FFFCCF82E080838091F202C8
:104760009091F3020097B9F48091F0029091F102D8
:104770000097E1F110C08230B9F515968C9182FD59
:1047800028C080FD0BC083E080838091F40290916B
:10479000F502009701F10E94352328C084E0808350
:1047A0008091F6029091F7020097A9F78091F002AC
:1047B0009091F1020097F9F00E945A238091F20241
:1047C0009091F302009739F78091F0029091F102F5
:1047D000E2CF85E080838091F0029091F102009712
:1047E00029F00E945A23F0CF86E08083DF91CF9199
:1047F0001F910F9108958091F2029091F302B8CF2A
:10480000A6E0B0E0E6E0F4E20C94772E0E943805D2
:104810008C018091D5019091D6018017910781F08C
:1048200019821A820E943805682F49815A81792F8E
:1048300080E090E00E9406221093D6010093D501FB
:104840002696E4E00C94932E1F920F920FB60F92CF
:1048500011242F933F934F935F936F937F938F9385
:104860009F93AF93BF93CF93DF93EF93FF93D09139
:10487000E900DF708091EC00C82FC17080FDC0E8B6
:104880001092E9008091F000877F8093F000789487
:104890000E9461131092E9008091F000886080937B
:1048A000F000CD2BCF70C093E900FF91EF91DF9125
:1048B000CF91BF91AF919F918F917F916F915F91B8
:1048C0004F913F912F910F900FBE0F901F90189511
:1048D0001F920F920FB60F9211242F933F934F9375
:1048E0005F936F937F938F939F93AF93BF93EF9358
:1048F000FF938091E10082FF09C08091E20082FF76
:1049000005C08091E1008B7F8093E1008091DA0007
:1049100080FF24C08091D80080FF20C08091DA0001
:104920008E7F8093DA008091D90080FF9DC080E166
:1049300089BD82E189BD09B400FEFDCF81E080938D
:10494000390480912C04811109C00E94AD030E949A
:104950004E048091E20084608093E2008091E10047
:1049600080FF17C08091E20080FF13C08091E200B9
:104970008E7F8093E2008091E20080618093E2006C
:104980008091D80080628093D80019BC85E0809324
:1049900039048091E10084FF2BC08091E20084FF04
:1049A00027C080E189BD82E189BD89B5982F9170CA
:1049B00080FFFBCF8091D8008F7D8093D8008091BD
:1049C000E1008F7E8093E1008091E2008F7E8093F2
:1049D000E2008091E20081608093E20080913A04DD
:1049E000882309F447C084E0809339048091390416
:1049F0008091E10083FF27C08091E20083FF23C004
:104A00008091E100877F8093E10082E08093390408
:104A100010923A048091E1008E7F8093E1008091B2
:104A2000E2008E7F8093E2008091E20080618093BB
:104A3000E20042E060E080E00E941C048091F0000F
:104A400088608093F000FF91EF91BF91AF919F91AB
:104A50008F917F916F915F914F913F912F910F9027
:104A60000FBE0F901F90189519BC10923904109228
:104A70002C0474CF8091E30087FD93E09093390478
:104A8000B5CF78941F921FB61F9211248F939F93D6
:104A9000AF93BF938091280490912904A0912A0498
:104AA000B0912B040196A11DB11D80932804909311
:104AB0002904A0932A04B0932B04BF91AF919F9136
:104AC0008F911F901FBE1F9018951F921FB61F92A7
:104AD00011248F939F93AF93BF93809127048111EB
:104AE00013C08091280490912904A0912A04B091C8
:104AF0002B044196A11DB11D809328049093290495
:104B0000A0932A04B0932B04BF91AF919F918F91F2
:104B10001F901FBE1F901895CDB7DEB7E1970FB657
:104B2000F894DEBF0FBECDBF85B7806885BF85B75F
:104B3000806885BF84B7877F84BF0FB6F894A89537
:104B400080916000886180936000109260000FBEC9
:104B500080E890E00FB6F894809361009093610034
:104B60000FBE80E996E090936101809360010E94FE
:104B70002B060E94EA0C0E94AD030E944E04809115
:104B8000E20084608093E200789480913904882365
:104B9000A1F01091E9001F709091EC00892F8170B5
:104BA00090FD80E8182B1092E9008091E80083FDC9
:104BB0000E9461131F701093E90082E084BD93E0AE
:104BC00095BD9AEF97BD80936E0010920E021092E1
:104BD0000F0210921002109211020E94470B8111D5
:104BE00002C00E94AA0C8091D80080618093D800F6
:104BF0002AE12A95F1F700C08091D900182F117091
:104C000080FD04C00E94AD0310923904109321046A
:104C10001093220410932901112309F4DCC010928F
:104C200034018BE1809335010E94072D8091290189
:104C30008091290194E0811190E090931B0284E01F
:104C4000891B80931A0284E90E94920686E60E94DC
:104C5000920687E90E94920686EC0E94920608E47A
:104C600011E0D8018D918D018F3F11F00E949206C5
:104C7000B1E00E341B07A9F788E0EFE2F2E0DF01B4
:104C8000282F1D922A95E9F7E2E1F2E0DF011D925B
:104C90008A95E9F790E080E00E943B2F863E9E4F88
:104CA00021F40E94470B811168C066EE7EEF90E010
:104CB00080E00E946F2F60E082E090E00E94512F20
:104CC00081E080931C0261E083E090E00E94512F1C
:104CD00060E074E184E090E00E946F2F60E086E085
:104CE00090E00E94512F60E087E090E00E94512FF9
:104CF00040E050E0BA0188E090E00E94632F60E05D
:104D000084E290E00E94512F60E087E190E00E94F1
:104D1000512F60E08CE090E00E94512F60E08DE028
:104D200090E00E94512F19821A821B821C821D82E0
:104D30001E821F82188648E050E068E170E0CE01D4
:104D400001960E94412F40E050E0BA0180E290E0DD
:104D50000E94632F80E00E94F80A0E94AA0C40E0A3
:104D600050E0BA018FE090E00E94632F40E050E0F5
:104D7000BA0183E190E00E94632F82E090E00E94FC
:104D80002D2F80931F0284E090E00E943B2F909390
:104D90002604809325040E94F510EFEFF6E721E04A
:104DA000E150F0402040E1F700C000000E94F51003
:104DB00080912204E4E08111E0E0F0E0E15DFD4F4C
:104DC000808181FF0EC06FEF7FEF90E080E00E9456
:104DD0006F2F0E940C058BE1809334018093350185
:104DE00025CF83E090E00E942D2F0E940F0A809132
:104DF0001E02811182C088E090E00E94352F4B0195
:104E00005C0184E290E00E942D2F282F30E040E0EA
:104E100050E060E070E080E090E000E20E94C12E8F
:104E2000282939294A295B292093DE023093DF02A1
:104E30004093E0025093E1026093E2027093E30238
:104E40008093E4029093E50230913B02336030930B
:104E50003B022C7F09F043C025E02093DE02109234
:104E6000DF022FEF2093E00228E72093E102109267
:104E7000E20225E030E04FEF58E760E00E94760D57
:104E800088E090E00E94352F6B017C0184E290E085
:104E90000E942D2F282F30E040E050E060E070E0CD
:104EA00080E090E00E94C12EB22FA32FF42FE52FB7
:104EB0005B0197018601BC29A12BFE29E32BB0934E
:104EC000DE02A093DF02F093E002E093E102609340
:104ED000E202B092E3028093E4029093E5020E9422
:104EE0007A068091DE0280FF05C060E08695869597
:104EF0000E94FB0E81E080931E02809121048111AB
:104F000002C00E940A2D8AE291E0909324048093CB
:104F100023048FE292E038E0380F39ABCE010196DE
:104F20007C0180913904E0E4DE2E00E112E185305D
:104F300009F485C00E94F51070E2C72E72E0D72EEA
:104F40000FE212E0D801F60191918D9122E0E83252
:104F5000F20709F47EC09817B9F3309021046FE28C
:104F6000A62E62E0B62E912C44244394D5018D9058
:104F70005D01F60151906F01581429F1712C6624DE
:104F800063945824852D8621B1F03320A1F07BA6AF
:104F90009CA60E9438059EA78DA74FA691E0882D5C
:104FA000862109F490E098AB4BA55CA56DA57EA584
:104FB0008FA50E9406227394660CF6E07F12E2CF62
:104FC000F60131978082939428E09212CFCF0E940D
:104FD000A90643C080913904843019F11092270446
:104FE000A8E1B0E00FB6F894A895A09360000FBEBA
:104FF000D092600083B7817F846083BF83B7816074
:1050000083BF7894889583B78E7F83BF0FB6F8945B
:10501000A895809160008861809360001092600084
:105020000FBE80913804882351F00E94F510EFE202
:10503000F2E08191811173C4B9A9BE13FACF8091B6
:105040003904853009F4C6CF0E9447130E94A30596
:1050500071CF981382CF0E9400248091210488236D
:1050600009F46DC08091160490911704892B09F4FE
:105070003EC040910B0450910C0460910D0470915E
:105080000E042FB7F8948091280490912904A091E0
:105090002A04B0912B042FBF841B950BA60BB70BD2
:1050A00040910704509108046091090470910A042A
:1050B00084179507A607B707D0F080911604909142
:1050C00017040E946418109217041092160410928C
:1050D0000B0410920C0410920D0410920E04109206
:1050E0000704109208041092090410920A04A09078
:1050F0001F04B0902004A114B10409F1809128028A
:10510000909129020E941D056C01C5010E94CE0CE0
:105110008C159D05A0F480911F049091200499277F
:1051200054E0880F991F5A95E1F7FC01E150FD4FBB
:10513000208122FD04C086509D4F0E941D130E94B5
:10514000A30590912A02891721F080932A020E94D8
:105150002C0580913904843009F0E3CE83E08093FC
:10516000E9008091E80082FFDCCE8091E80090E0C9
:1051700085FF05C00E94CC03882321F191E0809136
:10518000E8008B778093E800992309F4CACEC09099
:105190003702D09038028981C114D10489F18E3F41
:1051A00009F0C8C08A81833020F08550833008F030
:1051B000C1C0EA81EE3008F0BDC0F0E0ED51F04D25
:1051C0000C94B42E40E2A42EB12CCE0101966C01B9
:1051D0008091E80085FD0AC08091E8008B7780937C
:1051E000E8000E94CC03882399F3C8CF8091F10096
:1051F000D6018D936D01B1E0AB1AB10849F7BECF6E
:105200008B3009F402C2D8F5853009F4BBC0D0F464
:10521000823009F47EC030F4813009F476C08FEF1B
:10522000898388C0833009F49EC08430C1F74C81E3
:105230006B818A810E94600B9827892798279E831B
:105240008D8378C0873009F4ABC008F4A6C08830DD
:1052500009F4E1C0893019F72091DE023091DF02B4
:105260004091E0025091E1026091E2027091E3020C
:105270008091E4029091E5020E94760D5BC080313E
:1052800009F41BC1B0F58D3009F4EAC008F4E5C09B
:105290008E3009F4E9C08F3011F6809105049091A9
:1052A0000604892B09F446C00C8110E00D3111056C
:1052B00008F040C0CA80DB80DC24CD24DC24570108
:1052C0000E0D1F1DC601875B9D4F0A151B0591F131
:1052D000F7EBCF16F1E0DF0628F4D50114966C91B8
:1052E0000E94512FBFEFAB1ABB0AEFEFCE1ADE0AB6
:1052F000E9CF823109F4E6C008F4E2C0833109F451
:1053000009C18E3F09F08BCF54CF1A8289E08B837D
:1053100011C08A81823009F418C3833091F0813042
:1053200009F07DCF0E942C050E94BA2E6B837C83EE
:105330008D839E8340E250E0B70182E00E94430AE1
:10534000F0CD8091050490910604892B99F3FE011C
:10535000339687E392E0D8012D918D0121938A172E
:105360009B07C9F7E7CF8A81823009F058CF6B815C
:105370007C818D819E810E94BA2E88E290E00E94FD
:10538000512FD8CF2D813E813227232732274C81C0
:105390006B818A810E94210BCDCF0E94360CCACF2F
:1053A0008A818138B9F058F4803821F620E04B81A9
:1053B0006091E0028091DF020E949C0DBBCF823899
:1053C00031F1833809F0B6CF20E04091E1026C81E1
:1053D0008B81F2CF60E08B810E94FB0E9B818091DC
:1053E000DE0291110BC08E7F8093DE0280913B0222
:1053F000816080933B020E9456069CCF816080931F
:10540000DE0260E0869586950E94FB0E93CF8B812D
:105410008093E2028FCF8A81813899F030F480380E
:1054200009F088CF8091E10272CF823899F08338F9
:1054300009F080CF8091DF028B838091E0028C8322
:1054400079CF8091DE0280FF03C0869586955FCF7D
:1054500080E05DCF8091E2025ACF80E18A836ACFFB
:1054600081E08A8387EB53CF0C8110E00D31110569
:1054700008F060CFCA80DB80DC24CD24DC24570117
:105480000E0D1F1DC601875B9D4FA016B10609F4C6
:1054900051CFB7EBCB16B1E0DB0658F40E942D2FAD
:1054A000F5018483BFEFCB1ADB0AEFEFAE1ABE0A19
:1054B000E9CFD50114961C92F5CF0E94110B3ACF7B
:1054C00084E0CCCF0C8110E00D31110508F032CF13
:1054D000CA80DB80DC24CD24DC2457010E0D1F1D87
:1054E000C60189960A151B0509F424CFF0E8CF16EA
:1054F000F1E0DF0660F40E942D2FD50114968C9305
:10550000FFEFCF1ADF0A2FEFA21AB20AE9CFF50197
:105510001482F6CFCC80D12C3DE1C316D10408F023
:1055200009CF0A811B81102701271027003881E04D
:10553000180708F0FFCE80E891E0801B910B8C15D6
:105540009D0508F4F7CE380199E2690E711C80912F
:105550000504909106042601400E511E892BA1F5E9
:105560005801A1E0AA22BB2400FF0DC0C801889603
:105570000E942D2F9D8189279827892781159C4777
:1055800011F48FEF8D83460140FE17C0E1E08E1AC3
:10559000910835E0232E312C2C0E3D1E280C391C91
:1055A000C3018C0D9D1D0E942D2FD1019C91811551
:1055B0009C4719F48FEFF1018083F701EA0DFB1D81
:1055C0002FEFA814B90410F0670119C094818581E8
:1055D00081159C4711F42483258382E0A80EB11C19
:1055E0003296EFCF0038A1E01A0720F4F60164816B
:1055F0000E94512FFFEFCF1ADF0A0F5F1F4FC80124
:1056000089960415150571F795CE80910504909142
:105610000604892B09F48ECE40E250E0BE016F5F94
:105620007F4F82E00E94430A2FEF31EE84E0215049
:1056300030408040E1F700C00000CBCB88E0EAE3D7
:10564000F1E0DE01919601900D928A95E1F780E2FA
:10565000D7011D928A95E9F786E0898388E0FE01EB
:10566000B196DE01159601900D928A95E1F762CE12
:1056700084E8898381E08A831B821C825BCE8C81D3
:10568000682F70E0762F66278B81860F972F911DEC
:10569000092E000CAA0BBB0B25E0880F991FAA1F2F
:1056A000BB1F2A95D1F7AC01BD01405E5F4F6F4F24
:1056B0007F4F481759076A077B0708F43BCE8438A9
:1056C000E1E09E07A105B10508F034CE4538F1E0D0
:1056D0005F076105710520F044E851E060E070E08B
:1056E000481B590BBC01635B7E4FC7010E94F72E1C
:1056F00021CE4AE150E06FEF70E0CE0107960E94A4
:10570000162F809105048983CA821B821C821D8208
:1057100081E08E830FCE81E090E0909338028093F9
:10572000370282E390E090932E0280932D020E9434
:10573000380590932C0280932B02FCCDCD2851F19B
:1057400010912F0280912B0290912C020E941D0536
:105750008536910540F111FF26C010FF24C00E943C
:10576000380590932C0280932B0280912D0290910A
:105770002E02019790932E0280932D02892B51F4D3
:10578000109238021092370281E090E09093060464
:1057900080930504809105048983809137028A8370
:1057A00080912D02B4CD82E390E090932E028093FD
:1057B0002D02F0CF1092060410920504BBCD40E2FA
:1057C00050E06FEF70E0C7010E94162FB3CD8B81C0
:1057D000823009F450C0E8F4882309F444C08130D1
:1057E00009F0A8CD8C811AE06E01B1E2CB0ED11C7C
:1057F000F601212F11922A95E9F7B6010E94BA0C01
:105800008983F601DE01129601900D921A95E1F757
:1058100091CD853009F465C0863009F08BCD1C81AF
:105820008AE0FE013596DE01919601900D928A95EF
:10583000E1F78BA19CA10E9443069CA38BA38FEF51
:10584000183068F4FAE01F9FB001112467507E4FB2
:105850004AE050E0CE0181960E94752F80E0898356
:105860000E94EA0C67CD80E2D7011D928A95E9F784
:1058700088E089834CCD1C818AE0FE013596DE01EB
:10588000919601900D928A95E1F789A19AA10E94C3
:1058900043069AA389A38BA19CA10E9443069CA3C3
:1058A0008BA38DA19EA10E9443069EA38DA38FA1D1
:1058B00098A50E94430698A78FA38FEF183068F42D
:1058C0003AE0139FB001112467557E4F4AE050E043
:1058D000CE0181960E94752F80E089830E942B065D
:1058E00029CD6C812AE0CE018196DC01E22F1D9248
:1058F000EA95E9F7683088F4629FB0011124675097
:105900007E4F4AE050E00E941D2F80E089838AE0AC
:10591000FE01B196DE011296A6CE8FEFF7CF09BD3C
:1059200019BD09B400FEFDCF8091D8008F7D809312
:10593000D8008091E00082608093E0008091E000D8
:1059400081FDFCCF0E9447137ACB88E290E00E9451
:105950002D2F1B821C821D82DCCE8EE14A9B02C051
:105960008150E1F74A9BFECF08955A9880E28A95CC
:10597000F1F75A9A0895FC013BE03A95F1F798E067
:1059800020E080E031E040E14A95F1F7880F4A9B42
:1059900002C08160232742E04A95F1F7000040E110
:1059A0004A95F1F7915079F790E19A95F1F799B10D
:1059B00032E03A95F1F7000040E14A95F1F792FBA9
:1059C000992790F992272081920F90830895A1E062
:1059D000B0E0EDEEFCE20C94752E19828C017C0196
:1059E000E60EF11C0E151F0541F481E0998191111D
:1059F00080E02196E6E00C94912E0E94AD2CCE0121
:105A000001960E94BB2CF80181938F01EBCF529A33
:105A10005A9A089552985A9AEA9AE9E6F0E08081F3
:105A20008F7C808308956150770B91E001C0990FBE
:105A30006A95EAF720E031E0911108C0222391F045
:105A40005A9A80E28A95F1F75A980895492F482387
:105A500039F05A9A232740E24A95F1F79695ECCF10
:105A60005A98F9CF5A98EDCFFF920F931F93CF9387
:105A7000DF93EC018C01060F111DC017D10729F42B
:105A8000CDB7DEB7E5E00C94922EF9900E94B52CCC
:105A900068E08F2D0E94132DF0CF1F920F920FB64A
:105AA0000F9211240F931F932F933F934F935F9364
:105AB0006F937F938F939F93AF93BF93EF93FF93D6
:105AC000CF93DF930F92CDB7DEB719820E94AD2C32
:105AD000CE0101960E94BB2C082F069506950695CF
